{
  "abi": [
    {
      "inputs": [
        {
          "internalType": "address",
          "name": "",
          "type": "address"
        }
      ],
      "name": "clientId",
      "outputs": [
        {
          "internalType": "uint64",
          "name": "",
          "type": "uint64"
        }
      ],
      "stateMutability": "view",
      "type": "function"
    },
    {
      "inputs": [],
      "name": "nextId",
      "outputs": [
        {
          "internalType": "uint64",
          "name": "",
          "type": "uint64"
        }
      ],
      "stateMutability": "view",
      "type": "function"
    },
    {
      "inputs": [],
      "name": "register",
      "outputs": [
        {
          "internalType": "uint64",
          "name": "",
          "type": "uint64"
        }
      ],
      "stateMutability": "nonpayable",
      "type": "function"
    }
  ],
  "bytecode": "6080604052600180546001600160401b0319168117905534801561002257600080fd5b5061022a806100326000396000f3fe608060405234801561001057600080fd5b50600436106100415760003560e01c80631aa3a0081461004657806361b8ce8c1461006b578063b975e33d1461007f575b600080fd5b61004e6100a9565b60405167ffffffffffffffff909116815260200160405180910390f35b60015461004e9067ffffffffffffffff1681565b61004e61008d36600461018f565b60006020819052908152604090205467ffffffffffffffff1681565b3360009081526020819052604081205460609067ffffffffffffffff16156101175760405162461bcd60e51b815260206004820152601a60248201527f4164647265737320616c72656164792072656769737465726564000000000000604482015260640160405180910390fd5b60018054336000908152602081905260408120805467ffffffffffffffff191667ffffffffffffffff93841617905582549091169190610156836101bf565b82546101009290920a67ffffffffffffffff81810219909316918316021790915533600090815260208190526040902054169392505050565b6000602082840312156101a157600080fd5b81356001600160a01b03811681146101b857600080fd5b9392505050565b600067ffffffffffffffff8083168181036101ea57634e487b7160e01b600052601160045260246000fd5b600101939250505056fea26469706673582212207672707d42ed9e5cee7fee146be42a60315de2a33a56d005ea0da7ac14e3439b64736f6c63430008180033",
  "bytecodeSha1": "eb50bcaac139f730bfbacc72ac87e73845f19362",
  "compiler": {
    "evm_version": "istanbul",
    "optimizer": {
      "enabled": true,
      "runs": 200
    },
    "version": "0.8.24+commit.e11b9ed9"
  },
  "contractName": "clientManager",
  "language": "Solidity",
  "natspec": {
    "kind": "dev",
    "methods": {},
    "version": 1
  },
  "opcodes": "PUSH1 0x80 PUSH1 0x40 MSTORE CALLVALUE DUP1 ISZERO PUSH2 0x10 JUMPI PUSH1 0x0 DUP1 REVERT JUMPDEST POP PUSH1 0x4 CALLDATASIZE LT PUSH2 0x41 JUMPI PUSH1 0x0 CALLDATALOAD PUSH1 0xE0 SHR DUP1 PUSH4 0x1AA3A008 EQ PUSH2 0x46 JUMPI DUP1 PUSH4 0x61B8CE8C EQ PUSH2 0x6B JUMPI DUP1 PUSH4 0xB975E33D EQ PUSH2 0x7F JUMPI JUMPDEST PUSH1 0x0 DUP1 REVERT JUMPDEST PUSH2 0x4E PUSH2 0xA9 JUMP JUMPDEST PUSH1 0x40 MLOAD PUSH8 0xFFFFFFFFFFFFFFFF SWAP1 SWAP2 AND DUP2 MSTORE PUSH1 0x20 ADD PUSH1 0x40 MLOAD DUP1 SWAP2 SUB SWAP1 RETURN JUMPDEST PUSH1 0x1 SLOAD PUSH2 0x4E SWAP1 PUSH8 0xFFFFFFFFFFFFFFFF AND DUP2 JUMP JUMPDEST PUSH2 0x4E PUSH2 0x8D CALLDATASIZE PUSH1 0x4 PUSH2 0x18F JUMP JUMPDEST PUSH1 0x0 PUSH1 0x20 DUP2 SWAP1 MSTORE SWAP1 DUP2 MSTORE PUSH1 0x40 SWAP1 KECCAK256 SLOAD PUSH8 0xFFFFFFFFFFFFFFFF AND DUP2 JUMP JUMPDEST CALLER PUSH1 0x0 SWAP1 DUP2 MSTORE PUSH1 0x20 DUP2 SWAP1 MSTORE PUSH1 0x40 DUP2 KECCAK256 SLOAD PUSH1 0x60 SWAP1 PUSH8 0xFFFFFFFFFFFFFFFF AND ISZERO PUSH2 0x117 JUMPI PUSH1 0x40 MLOAD PUSH3 0x461BCD PUSH1 0xE5 SHL DUP2 MSTORE PUSH1 0x20 PUSH1 0x4 DUP3 ADD MSTORE PUSH1 0x1A PUSH1 0x24 DUP3 ADD MSTORE PUSH32 0x4164647265737320616C72656164792072656769737465726564000000000000 PUSH1 0x44 DUP3 ADD MSTORE PUSH1 0x64 ADD PUSH1 0x40 MLOAD DUP1 SWAP2 SUB SWAP1 REVERT JUMPDEST PUSH1 0x1 DUP1 SLOAD CALLER PUSH1 0x0 SWAP1 DUP2 MSTORE PUSH1 0x20 DUP2 SWAP1 MSTORE PUSH1 0x40 DUP2 KECCAK256 DUP1 SLOAD PUSH8 0xFFFFFFFFFFFFFFFF NOT AND PUSH8 0xFFFFFFFFFFFFFFFF SWAP4 DUP5 AND OR SWAP1 SSTORE DUP3 SLOAD SWAP1 SWAP2 AND SWAP2 SWAP1 PUSH2 0x156 DUP4 PUSH2 0x1BF JUMP JUMPDEST DUP3 SLOAD PUSH2 0x100 SWAP3 SWAP1 SWAP3 EXP PUSH8 0xFFFFFFFFFFFFFFFF DUP2 DUP2 MUL NOT SWAP1 SWAP4 AND SWAP2 DUP4 AND MUL OR SWAP1 SWAP2 SSTORE CALLER PUSH1 0x0 SWAP1 DUP2 MSTORE PUSH1 0x20 DUP2 SWAP1 MSTORE PUSH1 0x40 SWAP1 KECCAK256 SLOAD AND SWAP4 SWAP3 POP POP POP JUMP JUMPDEST PUSH1 0x0 PUSH1 0x20 DUP3 DUP5 SUB SLT ISZERO PUSH2 0x1A1 JUMPI PUSH1 0x0 DUP1 REVERT JUMPDEST DUP2 CALLDATALOAD PUSH1 0x1 PUSH1 0x1 PUSH1 0xA0 SHL SUB DUP2 AND DUP2 EQ PUSH2 0x1B8 JUMPI PUSH1 0x0 DUP1 REVERT JUMPDEST SWAP4 SWAP3 POP POP POP JUMP JUMPDEST PUSH1 0x0 PUSH8 0xFFFFFFFFFFFFFFFF DUP1 DUP4 AND DUP2 DUP2 SUB PUSH2 0x1EA JUMPI PUSH4 0x4E487B71 PUSH1 0xE0 SHL PUSH1 0x0 MSTORE PUSH1 0x11 PUSH1 0x4 MSTORE PUSH1 0x24 PUSH1 0x0 REVERT JUMPDEST PUSH1 0x1 ADD SWAP4 SWAP3 POP POP POP JUMP INVALID LOG2 PUSH5 0x6970667358 0x22 SLT KECCAK256 PUSH23 0x72707D42ED9E5CEE7FEE146BE42A60315DE2A33A56D005 0xEA 0xD 0xA7 0xAC EQ 0xE3 NUMBER SWAP12 PUSH5 0x736F6C6343 STOP ADDMOD XOR STOP CALLER ",
  "sha1": "bf02d0f3ba90e59a866b13ac522361b533dea7d2",
  "source": "//UNLICENSE\npragma solidity ^0.8.0;\ncontract clientManager{\n    mapping(address => uint64) public clientId;\n    uint64 public nextId = 1;\n\n    function register() public returns (uint64) {\n        address[] memory client;\n\n        require(clientId[msg.sender] == 0, \"Address already registered\");\n        clientId[msg.sender] = nextId;\n        nextId++;\n        return clientId[msg.sender];\n    }\n\n    // function pickIds(uint64 count) public view returns (uint64[] memory) {\n        \n    //     require(count > 0, \"Count must be greater than zero\");\n    //     require(count <= nextId - 1, \"Count must be less than or equal to the number of registered addresses\");\n\n    //     uint64[] memory ids;\n    //     uint64 remaining = count;\n    //     uint64 current = 1;\n\n    //     while (remaining > 0) {\n    //         uint randomseed = uint(keccak256(abi.encodePacked(block.timestamp, msg.sender)));\n    //         uint64 random_number = uint64(randomseed);\n    //         if (clientId[random_number%(nextId-1)] != 0) {\n    //             ids[count - remaining] = current;\n    //             remaining--;\n    //         }\n    //         current++;\n    //     }\n\n    //     return ids;\n    // }\n}\ncontract watermarkNegotiation {\n    //Define the watermark schema.\n    struct watermark{\n        uint   sign;\n        uint[] key;\n    }\n\n    mapping(address => uint) public watermark_mapping;\n    uint32 watermark_bit = 64;\n    uint32 verification_threshold = 50;\n\n    function generate_watermark() public {\n        //check if the address already has a mapping\n        uint random_watermark = uint(keccak256(abi.encodePacked(block.timestamp, msg.sender)));\n        watermark_mapping[msg.sender] = random_watermark;\n    }\n\n    function getwatermark_mapping() public view returns (uint) {\n        return watermark_mapping[msg.sender];\n    }\n\n    function verifyWatermark(address user, uint64 upload_watermark) public view returns (bool){\n        if(watermark_mapping[user] == upload_watermark) return true;\n        else return false;\n    }\n\n}\n\n\n",
  "sourcePath": "contracts/watermark_generator.sol",
  "type": "contract"
}