{
  "abi": [
    {
      "inputs": [],
      "stateMutability": "nonpayable",
      "type": "constructor"
    },
    {
      "inputs": [],
      "name": "client_regist",
      "outputs": [],
      "stateMutability": "nonpayable",
      "type": "function"
    },
    {
      "inputs": [],
      "name": "fl_info",
      "outputs": [
        {
          "internalType": "uint256",
          "name": "client_num",
          "type": "uint256"
        },
        {
          "internalType": "uint256",
          "name": "training_round",
          "type": "uint256"
        },
        {
          "internalType": "string",
          "name": "fl_algorithm",
          "type": "string"
        }
      ],
      "stateMutability": "view",
      "type": "function"
    },
    {
      "inputs": [
        {
          "internalType": "uint256",
          "name": "client_num",
          "type": "uint256"
        },
        {
          "internalType": "uint256",
          "name": "round",
          "type": "uint256"
        },
        {
          "internalType": "string",
          "name": "fl_algorithm",
          "type": "string"
        }
      ],
      "name": "fl_init",
      "outputs": [],
      "stateMutability": "nonpayable",
      "type": "function"
    },
    {
      "inputs": [],
      "name": "owner",
      "outputs": [
        {
          "internalType": "address",
          "name": "",
          "type": "address"
        }
      ],
      "stateMutability": "view",
      "type": "function"
    },
    {
      "inputs": [
        {
          "internalType": "uint256",
          "name": "",
          "type": "uint256"
        }
      ],
      "name": "regist_client",
      "outputs": [
        {
          "internalType": "address",
          "name": "",
          "type": "address"
        }
      ],
      "stateMutability": "view",
      "type": "function"
    },
    {
      "inputs": [
        {
          "internalType": "address",
          "name": "",
          "type": "address"
        }
      ],
      "name": "regist_result",
      "outputs": [
        {
          "internalType": "uint256",
          "name": "a",
          "type": "uint256"
        },
        {
          "internalType": "uint256",
          "name": "b",
          "type": "uint256"
        },
        {
          "internalType": "uint256",
          "name": "epoch",
          "type": "uint256"
        }
      ],
      "stateMutability": "view",
      "type": "function"
    },
    {
      "inputs": [
        {
          "internalType": "uint256",
          "name": "a",
          "type": "uint256"
        },
        {
          "internalType": "uint256",
          "name": "b",
          "type": "uint256"
        },
        {
          "internalType": "uint256",
          "name": "epoch",
          "type": "uint256"
        }
      ],
      "name": "upload_result",
      "outputs": [],
      "stateMutability": "nonpayable",
      "type": "function"
    }
  ],
  "bytecode": "608060405234801561001057600080fd5b50600080546001600160a01b0319163317905561074d806100326000396000f3fe608060405234801561001057600080fd5b506004361061007d5760003560e01c8063d8881d731161005b578063d8881d73146100cf578063da1173a0146100e6578063dbca71c7146100f9578063e0f4e8ac1461014257600080fd5b806359a65914146100825780638da5cb5b1461008c578063a0ad150c146100bc575b600080fd5b61008a610155565b005b60005461009f906001600160a01b031681565b6040516001600160a01b0390911681526020015b60405180910390f35b61008a6100ca36600461044d565b610223565b6100d76102a7565b6040516100b393929190610479565b61009f6100f43660046104d7565b610342565b6101276101073660046104f0565b600160208190526000918252604090912080549181015460029091015483565b604080519384526020840192909252908201526060016100b3565b61008a610150366004610520565b61036c565b61015e336103ee565b156101a75760405162461bcd60e51b8152602060048201526014602482015273436c69656e74206861732072656769737465642160601b60448201526064015b60405180910390fd5b60028054600181810183557f405787fa12a823e0f2b7631cc41b3ba8828b3321ca811111fa75cd3aa3bb5ace90910180546001600160a01b031916339081179091556040805160608101825260008082526020828101828152838501838152958352908690529290209051815590519281019290925551910155565b61022c336103ee565b6102845760405162461bcd60e51b815260206004820152602360248201527f4f6e6c79207061727469636970616e742063616e2063616c6c20746869732066604482015262756e6360e81b606482015260840161019e565b336000908152600160208190526040909120938455830191909155600290910155565b6003805460045460058054929391926102bf906105a0565b80601f01602080910402602001604051908101604052809291908181526020018280546102eb906105a0565b80156103385780601f1061030d57610100808354040283529160200191610338565b820191906000526020600020905b81548152906001019060200180831161031b57829003601f168201915b5050505050905083565b6002818154811061035257600080fd5b6000918252602090912001546001600160a01b0316905081565b6000546001600160a01b031633146103d05760405162461bcd60e51b815260206004820152602160248201527f4f6e6c79204f776e65722043616e2043616c6c20546869732046756e6374696f6044820152603760f91b606482015260840161019e565b6003849055600483905560056103e7828483610641565b5050505050565b6000805b60025481101561044457826001600160a01b03166002828154811061041957610419610701565b6000918252602090912001546001600160a01b03160361043c5750600192915050565b6001016103f2565b50600092915050565b60008060006060848603121561046257600080fd5b505081359360208301359350604090920135919050565b8381526000602084602084015260606040840152835180606085015260005b818110156104b457858101830151858201608001528201610498565b506000608082860101526080601f19601f83011685010192505050949350505050565b6000602082840312156104e957600080fd5b5035919050565b60006020828403121561050257600080fd5b81356001600160a01b038116811461051957600080fd5b9392505050565b6000806000806060858703121561053657600080fd5b8435935060208501359250604085013567ffffffffffffffff8082111561055c57600080fd5b818701915087601f83011261057057600080fd5b81358181111561057f57600080fd5b88602082850101111561059157600080fd5b95989497505060200194505050565b600181811c908216806105b457607f821691505b6020821081036105d457634e487b7160e01b600052602260045260246000fd5b50919050565b634e487b7160e01b600052604160045260246000fd5b601f82111561063c576000816000526020600020601f850160051c810160208610156106195750805b601f850160051c820191505b8181101561063857828155600101610625565b5050505b505050565b67ffffffffffffffff831115610659576106596105da565b61066d8361066783546105a0565b836105f0565b6000601f8411600181146106a157600085156106895750838201355b600019600387901b1c1916600186901b1783556103e7565b600083815260209020601f19861690835b828110156106d257868501358255602094850194600190920191016106b2565b50868210156106ef5760001960f88860031b161c19848701351681555b505060018560011b0183555050505050565b634e487b7160e01b600052603260045260246000fdfea2646970667358221220b457c80886a61cd67ce3c7c71d9f9b360b1171f1f1d57397ecd1f72c4606d06764736f6c63430008180033",
  "bytecodeSha1": "6fcaa68589a593e536a8920ff861c46c5091fc01",
  "compiler": {
    "evm_version": "istanbul",
    "optimizer": {
      "enabled": true,
      "runs": 200
    },
    "version": "0.8.24+commit.e11b9ed9"
  },
  "contractName": "NetworkManager",
  "language": "Solidity",
  "natspec": {
    "kind": "dev",
    "methods": {},
    "version": 1
  },
  "opcodes": "PUSH1 0x80 PUSH1 0x40 MSTORE CALLVALUE DUP1 ISZERO PUSH2 0x10 JUMPI PUSH1 0x0 DUP1 REVERT JUMPDEST POP PUSH1 0x4 CALLDATASIZE LT PUSH2 0x7D JUMPI PUSH1 0x0 CALLDATALOAD PUSH1 0xE0 SHR DUP1 PUSH4 0xD8881D73 GT PUSH2 0x5B JUMPI DUP1 PUSH4 0xD8881D73 EQ PUSH2 0xCF JUMPI DUP1 PUSH4 0xDA1173A0 EQ PUSH2 0xE6 JUMPI DUP1 PUSH4 0xDBCA71C7 EQ PUSH2 0xF9 JUMPI DUP1 PUSH4 0xE0F4E8AC EQ PUSH2 0x142 JUMPI PUSH1 0x0 DUP1 REVERT JUMPDEST DUP1 PUSH4 0x59A65914 EQ PUSH2 0x82 JUMPI DUP1 PUSH4 0x8DA5CB5B EQ PUSH2 0x8C JUMPI DUP1 PUSH4 0xA0AD150C EQ PUSH2 0xBC JUMPI JUMPDEST PUSH1 0x0 DUP1 REVERT JUMPDEST PUSH2 0x8A PUSH2 0x155 JUMP JUMPDEST STOP JUMPDEST PUSH1 0x0 SLOAD PUSH2 0x9F SWAP1 PUSH1 0x1 PUSH1 0x1 PUSH1 0xA0 SHL SUB AND DUP2 JUMP JUMPDEST PUSH1 0x40 MLOAD PUSH1 0x1 PUSH1 0x1 PUSH1 0xA0 SHL SUB SWAP1 SWAP2 AND DUP2 MSTORE PUSH1 0x20 ADD JUMPDEST PUSH1 0x40 MLOAD DUP1 SWAP2 SUB SWAP1 RETURN JUMPDEST PUSH2 0x8A PUSH2 0xCA CALLDATASIZE PUSH1 0x4 PUSH2 0x44D JUMP JUMPDEST PUSH2 0x223 JUMP JUMPDEST PUSH2 0xD7 PUSH2 0x2A7 JUMP JUMPDEST PUSH1 0x40 MLOAD PUSH2 0xB3 SWAP4 SWAP3 SWAP2 SWAP1 PUSH2 0x479 JUMP JUMPDEST PUSH2 0x9F PUSH2 0xF4 CALLDATASIZE PUSH1 0x4 PUSH2 0x4D7 JUMP JUMPDEST PUSH2 0x342 JUMP JUMPDEST PUSH2 0x127 PUSH2 0x107 CALLDATASIZE PUSH1 0x4 PUSH2 0x4F0 JUMP JUMPDEST PUSH1 0x1 PUSH1 0x20 DUP2 SWAP1 MSTORE PUSH1 0x0 SWAP2 DUP3 MSTORE PUSH1 0x40 SWAP1 SWAP2 KECCAK256 DUP1 SLOAD SWAP2 DUP2 ADD SLOAD PUSH1 0x2 SWAP1 SWAP2 ADD SLOAD DUP4 JUMP JUMPDEST PUSH1 0x40 DUP1 MLOAD SWAP4 DUP5 MSTORE PUSH1 0x20 DUP5 ADD SWAP3 SWAP1 SWAP3 MSTORE SWAP1 DUP3 ADD MSTORE PUSH1 0x60 ADD PUSH2 0xB3 JUMP JUMPDEST PUSH2 0x8A PUSH2 0x150 CALLDATASIZE PUSH1 0x4 PUSH2 0x520 JUMP JUMPDEST PUSH2 0x36C JUMP JUMPDEST PUSH2 0x15E CALLER PUSH2 0x3EE JUMP JUMPDEST ISZERO PUSH2 0x1A7 JUMPI PUSH1 0x40 MLOAD PUSH3 0x461BCD PUSH1 0xE5 SHL DUP2 MSTORE PUSH1 0x20 PUSH1 0x4 DUP3 ADD MSTORE PUSH1 0x14 PUSH1 0x24 DUP3 ADD MSTORE PUSH20 0x436C69656E742068617320726567697374656421 PUSH1 0x60 SHL PUSH1 0x44 DUP3 ADD MSTORE PUSH1 0x64 ADD JUMPDEST PUSH1 0x40 MLOAD DUP1 SWAP2 SUB SWAP1 REVERT JUMPDEST PUSH1 0x2 DUP1 SLOAD PUSH1 0x1 DUP2 DUP2 ADD DUP4 SSTORE PUSH32 0x405787FA12A823E0F2B7631CC41B3BA8828B3321CA811111FA75CD3AA3BB5ACE SWAP1 SWAP2 ADD DUP1 SLOAD PUSH1 0x1 PUSH1 0x1 PUSH1 0xA0 SHL SUB NOT AND CALLER SWAP1 DUP2 OR SWAP1 SWAP2 SSTORE PUSH1 0x40 DUP1 MLOAD PUSH1 0x60 DUP2 ADD DUP3 MSTORE PUSH1 0x0 DUP1 DUP3 MSTORE PUSH1 0x20 DUP3 DUP2 ADD DUP3 DUP2 MSTORE DUP4 DUP6 ADD DUP4 DUP2 MSTORE SWAP6 DUP4 MSTORE SWAP1 DUP7 SWAP1 MSTORE SWAP3 SWAP1 KECCAK256 SWAP1 MLOAD DUP2 SSTORE SWAP1 MLOAD SWAP3 DUP2 ADD SWAP3 SWAP1 SWAP3 SSTORE MLOAD SWAP2 ADD SSTORE JUMP JUMPDEST PUSH2 0x22C CALLER PUSH2 0x3EE JUMP JUMPDEST PUSH2 0x284 JUMPI PUSH1 0x40 MLOAD PUSH3 0x461BCD PUSH1 0xE5 SHL DUP2 MSTORE PUSH1 0x20 PUSH1 0x4 DUP3 ADD MSTORE PUSH1 0x23 PUSH1 0x24 DUP3 ADD MSTORE PUSH32 0x4F6E6C79207061727469636970616E742063616E2063616C6C20746869732066 PUSH1 0x44 DUP3 ADD MSTORE PUSH3 0x756E63 PUSH1 0xE8 SHL PUSH1 0x64 DUP3 ADD MSTORE PUSH1 0x84 ADD PUSH2 0x19E JUMP JUMPDEST CALLER PUSH1 0x0 SWAP1 DUP2 MSTORE PUSH1 0x1 PUSH1 0x20 DUP2 SWAP1 MSTORE PUSH1 0x40 SWAP1 SWAP2 KECCAK256 SWAP4 DUP5 SSTORE DUP4 ADD SWAP2 SWAP1 SWAP2 SSTORE PUSH1 0x2 SWAP1 SWAP2 ADD SSTORE JUMP JUMPDEST PUSH1 0x3 DUP1 SLOAD PUSH1 0x4 SLOAD PUSH1 0x5 DUP1 SLOAD SWAP3 SWAP4 SWAP2 SWAP3 PUSH2 0x2BF SWAP1 PUSH2 0x5A0 JUMP JUMPDEST DUP1 PUSH1 0x1F ADD PUSH1 0x20 DUP1 SWAP2 DIV MUL PUSH1 0x20 ADD PUSH1 0x40 MLOAD SWAP1 DUP2 ADD PUSH1 0x40 MSTORE DUP1 SWAP3 SWAP2 SWAP1 DUP2 DUP2 MSTORE PUSH1 0x20 ADD DUP3 DUP1 SLOAD PUSH2 0x2EB SWAP1 PUSH2 0x5A0 JUMP JUMPDEST DUP1 ISZERO PUSH2 0x338 JUMPI DUP1 PUSH1 0x1F LT PUSH2 0x30D JUMPI PUSH2 0x100 DUP1 DUP4 SLOAD DIV MUL DUP4 MSTORE SWAP2 PUSH1 0x20 ADD SWAP2 PUSH2 0x338 JUMP JUMPDEST DUP3 ADD SWAP2 SWAP1 PUSH1 0x0 MSTORE PUSH1 0x20 PUSH1 0x0 KECCAK256 SWAP1 JUMPDEST DUP2 SLOAD DUP2 MSTORE SWAP1 PUSH1 0x1 ADD SWAP1 PUSH1 0x20 ADD DUP1 DUP4 GT PUSH2 0x31B JUMPI DUP3 SWAP1 SUB PUSH1 0x1F AND DUP3 ADD SWAP2 JUMPDEST POP POP POP POP POP SWAP1 POP DUP4 JUMP JUMPDEST PUSH1 0x2 DUP2 DUP2 SLOAD DUP2 LT PUSH2 0x352 JUMPI PUSH1 0x0 DUP1 REVERT JUMPDEST PUSH1 0x0 SWAP2 DUP3 MSTORE PUSH1 0x20 SWAP1 SWAP2 KECCAK256 ADD SLOAD PUSH1 0x1 PUSH1 0x1 PUSH1 0xA0 SHL SUB AND SWAP1 POP DUP2 JUMP JUMPDEST PUSH1 0x0 SLOAD PUSH1 0x1 PUSH1 0x1 PUSH1 0xA0 SHL SUB AND CALLER EQ PUSH2 0x3D0 JUMPI PUSH1 0x40 MLOAD PUSH3 0x461BCD PUSH1 0xE5 SHL DUP2 MSTORE PUSH1 0x20 PUSH1 0x4 DUP3 ADD MSTORE PUSH1 0x21 PUSH1 0x24 DUP3 ADD MSTORE PUSH32 0x4F6E6C79204F776E65722043616E2043616C6C20546869732046756E6374696F PUSH1 0x44 DUP3 ADD MSTORE PUSH1 0x37 PUSH1 0xF9 SHL PUSH1 0x64 DUP3 ADD MSTORE PUSH1 0x84 ADD PUSH2 0x19E JUMP JUMPDEST PUSH1 0x3 DUP5 SWAP1 SSTORE PUSH1 0x4 DUP4 SWAP1 SSTORE PUSH1 0x5 PUSH2 0x3E7 DUP3 DUP5 DUP4 PUSH2 0x641 JUMP JUMPDEST POP POP POP POP POP JUMP JUMPDEST PUSH1 0x0 DUP1 JUMPDEST PUSH1 0x2 SLOAD DUP2 LT ISZERO PUSH2 0x444 JUMPI DUP3 PUSH1 0x1 PUSH1 0x1 PUSH1 0xA0 SHL SUB AND PUSH1 0x2 DUP3 DUP2 SLOAD DUP2 LT PUSH2 0x419 JUMPI PUSH2 0x419 PUSH2 0x701 JUMP JUMPDEST PUSH1 0x0 SWAP2 DUP3 MSTORE PUSH1 0x20 SWAP1 SWAP2 KECCAK256 ADD SLOAD PUSH1 0x1 PUSH1 0x1 PUSH1 0xA0 SHL SUB AND SUB PUSH2 0x43C JUMPI POP PUSH1 0x1 SWAP3 SWAP2 POP POP JUMP JUMPDEST PUSH1 0x1 ADD PUSH2 0x3F2 JUMP JUMPDEST POP PUSH1 0x0 SWAP3 SWAP2 POP POP JUMP JUMPDEST PUSH1 0x0 DUP1 PUSH1 0x0 PUSH1 0x60 DUP5 DUP7 SUB SLT ISZERO PUSH2 0x462 JUMPI PUSH1 0x0 DUP1 REVERT JUMPDEST POP POP DUP2 CALLDATALOAD SWAP4 PUSH1 0x20 DUP4 ADD CALLDATALOAD SWAP4 POP PUSH1 0x40 SWAP1 SWAP3 ADD CALLDATALOAD SWAP2 SWAP1 POP JUMP JUMPDEST DUP4 DUP2 MSTORE PUSH1 0x0 PUSH1 0x20 DUP5 PUSH1 0x20 DUP5 ADD MSTORE PUSH1 0x60 PUSH1 0x40 DUP5 ADD MSTORE DUP4 MLOAD DUP1 PUSH1 0x60 DUP6 ADD MSTORE PUSH1 0x0 JUMPDEST DUP2 DUP2 LT ISZERO PUSH2 0x4B4 JUMPI DUP6 DUP2 ADD DUP4 ADD MLOAD DUP6 DUP3 ADD PUSH1 0x80 ADD MSTORE DUP3 ADD PUSH2 0x498 JUMP JUMPDEST POP PUSH1 0x0 PUSH1 0x80 DUP3 DUP7 ADD ADD MSTORE PUSH1 0x80 PUSH1 0x1F NOT PUSH1 0x1F DUP4 ADD AND DUP6 ADD ADD SWAP3 POP POP POP SWAP5 SWAP4 POP POP POP POP JUMP JUMPDEST PUSH1 0x0 PUSH1 0x20 DUP3 DUP5 SUB SLT ISZERO PUSH2 0x4E9 JUMPI PUSH1 0x0 DUP1 REVERT JUMPDEST POP CALLDATALOAD SWAP2 SWAP1 POP JUMP JUMPDEST PUSH1 0x0 PUSH1 0x20 DUP3 DUP5 SUB SLT ISZERO PUSH2 0x502 JUMPI PUSH1 0x0 DUP1 REVERT JUMPDEST DUP2 CALLDATALOAD PUSH1 0x1 PUSH1 0x1 PUSH1 0xA0 SHL SUB DUP2 AND DUP2 EQ PUSH2 0x519 JUMPI PUSH1 0x0 DUP1 REVERT JUMPDEST SWAP4 SWAP3 POP POP POP JUMP JUMPDEST PUSH1 0x0 DUP1 PUSH1 0x0 DUP1 PUSH1 0x60 DUP6 DUP8 SUB SLT ISZERO PUSH2 0x536 JUMPI PUSH1 0x0 DUP1 REVERT JUMPDEST DUP5 CALLDATALOAD SWAP4 POP PUSH1 0x20 DUP6 ADD CALLDATALOAD SWAP3 POP PUSH1 0x40 DUP6 ADD CALLDATALOAD PUSH8 0xFFFFFFFFFFFFFFFF DUP1 DUP3 GT ISZERO PUSH2 0x55C JUMPI PUSH1 0x0 DUP1 REVERT JUMPDEST DUP2 DUP8 ADD SWAP2 POP DUP8 PUSH1 0x1F DUP4 ADD SLT PUSH2 0x570 JUMPI PUSH1 0x0 DUP1 REVERT JUMPDEST DUP2 CALLDATALOAD DUP2 DUP2 GT ISZERO PUSH2 0x57F JUMPI PUSH1 0x0 DUP1 REVERT JUMPDEST DUP9 PUSH1 0x20 DUP3 DUP6 ADD ADD GT ISZERO PUSH2 0x591 JUMPI PUSH1 0x0 DUP1 REVERT JUMPDEST SWAP6 SWAP9 SWAP5 SWAP8 POP POP PUSH1 0x20 ADD SWAP5 POP POP POP JUMP JUMPDEST PUSH1 0x1 DUP2 DUP2 SHR SWAP1 DUP3 AND DUP1 PUSH2 0x5B4 JUMPI PUSH1 0x7F DUP3 AND SWAP2 POP JUMPDEST PUSH1 0x20 DUP3 LT DUP2 SUB PUSH2 0x5D4 JUMPI PUSH4 0x4E487B71 PUSH1 0xE0 SHL PUSH1 0x0 MSTORE PUSH1 0x22 PUSH1 0x4 MSTORE PUSH1 0x24 PUSH1 0x0 REVERT JUMPDEST POP SWAP2 SWAP1 POP JUMP JUMPDEST PUSH4 0x4E487B71 PUSH1 0xE0 SHL PUSH1 0x0 MSTORE PUSH1 0x41 PUSH1 0x4 MSTORE PUSH1 0x24 PUSH1 0x0 REVERT JUMPDEST PUSH1 0x1F DUP3 GT ISZERO PUSH2 0x63C JUMPI PUSH1 0x0 DUP2 PUSH1 0x0 MSTORE PUSH1 0x20 PUSH1 0x0 KECCAK256 PUSH1 0x1F DUP6 ADD PUSH1 0x5 SHR DUP2 ADD PUSH1 0x20 DUP7 LT ISZERO PUSH2 0x619 JUMPI POP DUP1 JUMPDEST PUSH1 0x1F DUP6 ADD PUSH1 0x5 SHR DUP3 ADD SWAP2 POP JUMPDEST DUP2 DUP2 LT ISZERO PUSH2 0x638 JUMPI DUP3 DUP2 SSTORE PUSH1 0x1 ADD PUSH2 0x625 JUMP JUMPDEST POP POP POP JUMPDEST POP POP POP JUMP JUMPDEST PUSH8 0xFFFFFFFFFFFFFFFF DUP4 GT ISZERO PUSH2 0x659 JUMPI PUSH2 0x659 PUSH2 0x5DA JUMP JUMPDEST PUSH2 0x66D DUP4 PUSH2 0x667 DUP4 SLOAD PUSH2 0x5A0 JUMP JUMPDEST DUP4 PUSH2 0x5F0 JUMP JUMPDEST PUSH1 0x0 PUSH1 0x1F DUP5 GT PUSH1 0x1 DUP2 EQ PUSH2 0x6A1 JUMPI PUSH1 0x0 DUP6 ISZERO PUSH2 0x689 JUMPI POP DUP4 DUP3 ADD CALLDATALOAD JUMPDEST PUSH1 0x0 NOT PUSH1 0x3 DUP8 SWAP1 SHL SHR NOT AND PUSH1 0x1 DUP7 SWAP1 SHL OR DUP4 SSTORE PUSH2 0x3E7 JUMP JUMPDEST PUSH1 0x0 DUP4 DUP2 MSTORE PUSH1 0x20 SWAP1 KECCAK256 PUSH1 0x1F NOT DUP7 AND SWAP1 DUP4 JUMPDEST DUP3 DUP2 LT ISZERO PUSH2 0x6D2 JUMPI DUP7 DUP6 ADD CALLDATALOAD DUP3 SSTORE PUSH1 0x20 SWAP5 DUP6 ADD SWAP5 PUSH1 0x1 SWAP1 SWAP3 ADD SWAP2 ADD PUSH2 0x6B2 JUMP JUMPDEST POP DUP7 DUP3 LT ISZERO PUSH2 0x6EF JUMPI PUSH1 0x0 NOT PUSH1 0xF8 DUP9 PUSH1 0x3 SHL AND SHR NOT DUP5 DUP8 ADD CALLDATALOAD AND DUP2 SSTORE JUMPDEST POP POP PUSH1 0x1 DUP6 PUSH1 0x1 SHL ADD DUP4 SSTORE POP POP POP POP POP JUMP JUMPDEST PUSH4 0x4E487B71 PUSH1 0xE0 SHL PUSH1 0x0 MSTORE PUSH1 0x32 PUSH1 0x4 MSTORE PUSH1 0x24 PUSH1 0x0 REVERT INVALID LOG2 PUSH5 0x6970667358 0x22 SLT KECCAK256 0xB4 JUMPI 0xC8 ADDMOD DUP7 0xA6 SHR 0xD6 PUSH29 0xE3C7C71D9F9B360B1171F1F1D57397ECD1F72C4606D06764736F6C6343 STOP ADDMOD XOR STOP CALLER ",
  "sha1": "abd54fe27c42ccd027dc9a7b09654b3a887c7cbb",
  "source": "//UNLICENSE\npragma solidity ^0.8.0;\n\ncontract NetworkManager{\n    // Info represent a federated training.\n    constructor() {\n        owner = payable(msg.sender);\n    }\n    struct FLMeta{\n        uint client_num;\n        uint training_round;\n        string fl_algorithm;\n    }\n    // Record Training Result for client, this struct simulate a float\n    // result = a * 10^b\n    struct TrainResult{\n        uint a;\n        uint b;\n        uint epoch;\n    }\n\n    address public owner;\n    mapping(address => TrainResult) public regist_result;\n    address[] public regist_client;\n    //mapping(address => TrainResult) public regist_client;\n\n    FLMeta public fl_info;\n    TrainResult[] fl_result;\n    \n    modifier only_owner{\n        require(msg.sender == owner,\"Only Owner Can Call This Function\");\n        _;\n    }\n    modifier only_participant{\n        require(is_duplicate_client(msg.sender), \"Only participant can call this func\");\n        _;\n    }\n    function fl_init(uint client_num, uint round, string calldata fl_algorithm) public only_owner{\n        fl_info.client_num = client_num;\n        fl_info.training_round = round;\n        fl_info.fl_algorithm = fl_algorithm;\n    }\n    function is_duplicate_client(address client) internal view returns(bool){\n        for(uint i = 0; i < regist_client.length; i++){\n            if(regist_client[i] == client) return true;\n        }\n        return false;\n    }\n    function client_regist() public {\n        require(!is_duplicate_client(msg.sender),\"Client has registed!\");\n        regist_client.push(msg.sender);\n        regist_result[msg.sender] = TrainResult(0,0,0);\n    }\n\n    function upload_result(uint a, uint b, uint epoch) public only_participant{\n        TrainResult storage c = regist_result[msg.sender];\n        c.a = a;\n        c.b = b;\n        c.epoch = epoch;\n    }\n}",
  "sourcePath": "contracts/NetworkManager.sol",
  "type": "contract"
}