{
  "abi": [
    {
      "inputs": [],
      "stateMutability": "nonpayable",
      "type": "constructor"
    },
    {
      "inputs": [
        {
          "internalType": "uint256",
          "name": "x",
          "type": "uint256"
        }
      ],
      "name": "get",
      "outputs": [
        {
          "internalType": "uint256",
          "name": "",
          "type": "uint256"
        }
      ],
      "stateMutability": "view",
      "type": "function"
    },
    {
      "inputs": [],
      "name": "minter",
      "outputs": [
        {
          "internalType": "address",
          "name": "",
          "type": "address"
        }
      ],
      "stateMutability": "view",
      "type": "function"
    },
    {
      "inputs": [
        {
          "internalType": "uint256",
          "name": "x",
          "type": "uint256"
        }
      ],
      "name": "set",
      "outputs": [],
      "stateMutability": "nonpayable",
      "type": "function"
    }
  ],
  "bytecode": "608060405234801561001057600080fd5b50600180546001600160a01b03191633179055610109806100326000396000f3fe6080604052348015600f57600080fd5b5060043610603c5760003560e01c80630754617214604157806360fe47b11460705780639507d39a146081575b600080fd5b6001546053906001600160a01b031681565b6040516001600160a01b0390911681526020015b60405180910390f35b607f607b36600460bb565b60a0565b005b6093608c36600460bb565b5060005490565b6040519081526020016067565b6001546001600160a01b0316331460b657600080fd5b600055565b60006020828403121560cc57600080fd5b503591905056fea2646970667358221220a59cef42834690e7bedcba03b93a4647b9338aa202b9cd074dddb81f44d593a764736f6c63430008180033",
  "bytecodeSha1": "c75c6ed2a0e1f141bbb3429edbf4283fcc57dd31",
  "compiler": {
    "evm_version": "istanbul",
    "optimizer": {
      "enabled": true,
      "runs": 200
    },
    "version": "0.8.24+commit.e11b9ed9"
  },
  "contractName": "SimpleStorage",
  "language": "Solidity",
  "natspec": {
    "kind": "dev",
    "methods": {},
    "version": 1
  },
  "opcodes": "PUSH1 0x80 PUSH1 0x40 MSTORE CALLVALUE DUP1 ISZERO PUSH1 0xF JUMPI PUSH1 0x0 DUP1 REVERT JUMPDEST POP PUSH1 0x4 CALLDATASIZE LT PUSH1 0x3C JUMPI PUSH1 0x0 CALLDATALOAD PUSH1 0xE0 SHR DUP1 PUSH4 0x7546172 EQ PUSH1 0x41 JUMPI DUP1 PUSH4 0x60FE47B1 EQ PUSH1 0x70 JUMPI DUP1 PUSH4 0x9507D39A EQ PUSH1 0x81 JUMPI JUMPDEST PUSH1 0x0 DUP1 REVERT JUMPDEST PUSH1 0x1 SLOAD PUSH1 0x53 SWAP1 PUSH1 0x1 PUSH1 0x1 PUSH1 0xA0 SHL SUB AND DUP2 JUMP JUMPDEST PUSH1 0x40 MLOAD PUSH1 0x1 PUSH1 0x1 PUSH1 0xA0 SHL SUB SWAP1 SWAP2 AND DUP2 MSTORE PUSH1 0x20 ADD JUMPDEST PUSH1 0x40 MLOAD DUP1 SWAP2 SUB SWAP1 RETURN JUMPDEST PUSH1 0x7F PUSH1 0x7B CALLDATASIZE PUSH1 0x4 PUSH1 0xBB JUMP JUMPDEST PUSH1 0xA0 JUMP JUMPDEST STOP JUMPDEST PUSH1 0x93 PUSH1 0x8C CALLDATASIZE PUSH1 0x4 PUSH1 0xBB JUMP JUMPDEST POP PUSH1 0x0 SLOAD SWAP1 JUMP JUMPDEST PUSH1 0x40 MLOAD SWAP1 DUP2 MSTORE PUSH1 0x20 ADD PUSH1 0x67 JUMP JUMPDEST PUSH1 0x1 SLOAD PUSH1 0x1 PUSH1 0x1 PUSH1 0xA0 SHL SUB AND CALLER EQ PUSH1 0xB6 JUMPI PUSH1 0x0 DUP1 REVERT JUMPDEST PUSH1 0x0 SSTORE JUMP JUMPDEST PUSH1 0x0 PUSH1 0x20 DUP3 DUP5 SUB SLT ISZERO PUSH1 0xCC JUMPI PUSH1 0x0 DUP1 REVERT JUMPDEST POP CALLDATALOAD SWAP2 SWAP1 POP JUMP INVALID LOG2 PUSH5 0x6970667358 0x22 SLT KECCAK256 0xA5 SWAP13 0xEF TIMESTAMP DUP4 CHAINID SWAP1 0xE7 0xBE 0xDC 0xBA SUB 0xB9 GASPRICE CHAINID SELFBALANCE 0xB9 CALLER DUP11 LOG2 MUL 0xB9 0xCD SMOD 0x4D 0xDD 0xB8 0x1F DIFFICULTY 0xD5 SWAP4 0xA7 PUSH5 0x736F6C6343 STOP ADDMOD XOR STOP CALLER ",
  "sha1": "19b8926ddbb78ac8ff7e9f3cb6ff108a30c9f4f4",
  "source": "//UNLICENSE\npragma solidity >=0.4.22;\n\ncontract SimpleStorage{\n    uint storageData;\n    address public minter;\n    constructor(){\n        minter = msg.sender;\n    }\n    function set(uint x) public{\n        require(msg.sender==minter);\n        storageData = x;\n    }\n\n    function get(uint x) public view returns (uint){\n        return storageData;\n    }\n}\n",
  "sourcePath": "contracts/example_contracts.sol",
  "type": "contract"
}