{
  "abi": [
    {
      "inputs": [],
      "name": "generate_watermark",
      "outputs": [],
      "stateMutability": "nonpayable",
      "type": "function"
    },
    {
      "inputs": [],
      "name": "getwatermark_mapping",
      "outputs": [
        {
          "internalType": "uint256",
          "name": "",
          "type": "uint256"
        }
      ],
      "stateMutability": "view",
      "type": "function"
    },
    {
      "inputs": [
        {
          "internalType": "address",
          "name": "user",
          "type": "address"
        },
        {
          "internalType": "uint64",
          "name": "upload_watermark",
          "type": "uint64"
        }
      ],
      "name": "verifyWatermark",
      "outputs": [
        {
          "internalType": "bool",
          "name": "",
          "type": "bool"
        }
      ],
      "stateMutability": "view",
      "type": "function"
    },
    {
      "inputs": [
        {
          "internalType": "address",
          "name": "",
          "type": "address"
        }
      ],
      "name": "watermark_mapping",
      "outputs": [
        {
          "internalType": "uint256",
          "name": "",
          "type": "uint256"
        }
      ],
      "stateMutability": "view",
      "type": "function"
    }
  ],
  "bytecode": "6080604052600180546001600160401b03191664320000004017905534801561002757600080fd5b5061020e806100376000396000f3fe608060405234801561001057600080fd5b506004361061004c5760003560e01c8063028bd48e146100515780638fc85a031461005b578063a1c792f21461007f578063a9a4090d1461009f575b600080fd5b6100596100c2565b005b336000908152602081905260409020545b6040519081526020015b60405180910390f35b61006c61008d366004610172565b60006020819052908152604090205481565b6100b26100ad366004610194565b61011a565b6040519015158152602001610076565b600042336040516020016100f292919091825260601b6bffffffffffffffffffffffff1916602082015260340190565b60408051601f1981840301815291815281516020928301203360009081529283905291205550565b6001600160a01b03821660009081526020819052604081205467ffffffffffffffff8316900361014c57506001610150565b5060005b92915050565b80356001600160a01b038116811461016d57600080fd5b919050565b60006020828403121561018457600080fd5b61018d82610156565b9392505050565b600080604083850312156101a757600080fd5b6101b083610156565b9150602083013567ffffffffffffffff811681146101cd57600080fd5b80915050925092905056fea26469706673582212204c9208cba42c7cb73d163c55a863daaa1f0fb44cad6bb77e29a7345f1f6a7e6964736f6c63430008180033",
  "bytecodeSha1": "f447c7ee5ebaf50d658b3403f264ccee250f83a1",
  "compiler": {
    "evm_version": "istanbul",
    "optimizer": {
      "enabled": true,
      "runs": 200
    },
    "version": "0.8.24+commit.e11b9ed9"
  },
  "contractName": "watermarkNegotiation",
  "language": "Solidity",
  "natspec": {
    "kind": "dev",
    "methods": {},
    "version": 1
  },
  "opcodes": "PUSH1 0x80 PUSH1 0x40 MSTORE CALLVALUE DUP1 ISZERO PUSH2 0x10 JUMPI PUSH1 0x0 DUP1 REVERT JUMPDEST POP PUSH1 0x4 CALLDATASIZE LT PUSH2 0x4C JUMPI PUSH1 0x0 CALLDATALOAD PUSH1 0xE0 SHR DUP1 PUSH4 0x28BD48E EQ PUSH2 0x51 JUMPI DUP1 PUSH4 0x8FC85A03 EQ PUSH2 0x5B JUMPI DUP1 PUSH4 0xA1C792F2 EQ PUSH2 0x7F JUMPI DUP1 PUSH4 0xA9A4090D EQ PUSH2 0x9F JUMPI JUMPDEST PUSH1 0x0 DUP1 REVERT JUMPDEST PUSH2 0x59 PUSH2 0xC2 JUMP JUMPDEST STOP JUMPDEST CALLER PUSH1 0x0 SWAP1 DUP2 MSTORE PUSH1 0x20 DUP2 SWAP1 MSTORE PUSH1 0x40 SWAP1 KECCAK256 SLOAD JUMPDEST PUSH1 0x40 MLOAD SWAP1 DUP2 MSTORE PUSH1 0x20 ADD JUMPDEST PUSH1 0x40 MLOAD DUP1 SWAP2 SUB SWAP1 RETURN JUMPDEST PUSH2 0x6C PUSH2 0x8D CALLDATASIZE PUSH1 0x4 PUSH2 0x172 JUMP JUMPDEST PUSH1 0x0 PUSH1 0x20 DUP2 SWAP1 MSTORE SWAP1 DUP2 MSTORE PUSH1 0x40 SWAP1 KECCAK256 SLOAD DUP2 JUMP JUMPDEST PUSH2 0xB2 PUSH2 0xAD CALLDATASIZE PUSH1 0x4 PUSH2 0x194 JUMP JUMPDEST PUSH2 0x11A JUMP JUMPDEST PUSH1 0x40 MLOAD SWAP1 ISZERO ISZERO DUP2 MSTORE PUSH1 0x20 ADD PUSH2 0x76 JUMP JUMPDEST PUSH1 0x0 TIMESTAMP CALLER PUSH1 0x40 MLOAD PUSH1 0x20 ADD PUSH2 0xF2 SWAP3 SWAP2 SWAP1 SWAP2 DUP3 MSTORE PUSH1 0x60 SHL PUSH12 0xFFFFFFFFFFFFFFFFFFFFFFFF NOT AND PUSH1 0x20 DUP3 ADD MSTORE PUSH1 0x34 ADD SWAP1 JUMP JUMPDEST PUSH1 0x40 DUP1 MLOAD PUSH1 0x1F NOT DUP2 DUP5 SUB ADD DUP2 MSTORE SWAP2 DUP2 MSTORE DUP2 MLOAD PUSH1 0x20 SWAP3 DUP4 ADD KECCAK256 CALLER PUSH1 0x0 SWAP1 DUP2 MSTORE SWAP3 DUP4 SWAP1 MSTORE SWAP2 KECCAK256 SSTORE POP JUMP JUMPDEST PUSH1 0x1 PUSH1 0x1 PUSH1 0xA0 SHL SUB DUP3 AND PUSH1 0x0 SWAP1 DUP2 MSTORE PUSH1 0x20 DUP2 SWAP1 MSTORE PUSH1 0x40 DUP2 KECCAK256 SLOAD PUSH8 0xFFFFFFFFFFFFFFFF DUP4 AND SWAP1 SUB PUSH2 0x14C JUMPI POP PUSH1 0x1 PUSH2 0x150 JUMP JUMPDEST POP PUSH1 0x0 JUMPDEST SWAP3 SWAP2 POP POP JUMP JUMPDEST DUP1 CALLDATALOAD PUSH1 0x1 PUSH1 0x1 PUSH1 0xA0 SHL SUB DUP2 AND DUP2 EQ PUSH2 0x16D JUMPI PUSH1 0x0 DUP1 REVERT JUMPDEST SWAP2 SWAP1 POP JUMP JUMPDEST PUSH1 0x0 PUSH1 0x20 DUP3 DUP5 SUB SLT ISZERO PUSH2 0x184 JUMPI PUSH1 0x0 DUP1 REVERT JUMPDEST PUSH2 0x18D DUP3 PUSH2 0x156 JUMP JUMPDEST SWAP4 SWAP3 POP POP POP JUMP JUMPDEST PUSH1 0x0 DUP1 PUSH1 0x40 DUP4 DUP6 SUB SLT ISZERO PUSH2 0x1A7 JUMPI PUSH1 0x0 DUP1 REVERT JUMPDEST PUSH2 0x1B0 DUP4 PUSH2 0x156 JUMP JUMPDEST SWAP2 POP PUSH1 0x20 DUP4 ADD CALLDATALOAD PUSH8 0xFFFFFFFFFFFFFFFF DUP2 AND DUP2 EQ PUSH2 0x1CD JUMPI PUSH1 0x0 DUP1 REVERT JUMPDEST DUP1 SWAP2 POP POP SWAP3 POP SWAP3 SWAP1 POP JUMP INVALID LOG2 PUSH5 0x6970667358 0x22 SLT KECCAK256 0x4C SWAP3 ADDMOD 0xCB LOG4 0x2C PUSH29 0xB73D163C55A863DAAA1F0FB44CAD6BB77E29A7345F1F6A7E6964736F6C PUSH4 0x43000818 STOP CALLER ",
  "sha1": "bf02d0f3ba90e59a866b13ac522361b533dea7d2",
  "source": "//UNLICENSE\npragma solidity ^0.8.0;\ncontract clientManager{\n    mapping(address => uint64) public clientId;\n    uint64 public nextId = 1;\n\n    function register() public returns (uint64) {\n        address[] memory client;\n\n        require(clientId[msg.sender] == 0, \"Address already registered\");\n        clientId[msg.sender] = nextId;\n        nextId++;\n        return clientId[msg.sender];\n    }\n\n    // function pickIds(uint64 count) public view returns (uint64[] memory) {\n        \n    //     require(count > 0, \"Count must be greater than zero\");\n    //     require(count <= nextId - 1, \"Count must be less than or equal to the number of registered addresses\");\n\n    //     uint64[] memory ids;\n    //     uint64 remaining = count;\n    //     uint64 current = 1;\n\n    //     while (remaining > 0) {\n    //         uint randomseed = uint(keccak256(abi.encodePacked(block.timestamp, msg.sender)));\n    //         uint64 random_number = uint64(randomseed);\n    //         if (clientId[random_number%(nextId-1)] != 0) {\n    //             ids[count - remaining] = current;\n    //             remaining--;\n    //         }\n    //         current++;\n    //     }\n\n    //     return ids;\n    // }\n}\ncontract watermarkNegotiation {\n    //Define the watermark schema.\n    struct watermark{\n        uint   sign;\n        uint[] key;\n    }\n\n    mapping(address => uint) public watermark_mapping;\n    uint32 watermark_bit = 64;\n    uint32 verification_threshold = 50;\n\n    function generate_watermark() public {\n        //check if the address already has a mapping\n        uint random_watermark = uint(keccak256(abi.encodePacked(block.timestamp, msg.sender)));\n        watermark_mapping[msg.sender] = random_watermark;\n    }\n\n    function getwatermark_mapping() public view returns (uint) {\n        return watermark_mapping[msg.sender];\n    }\n\n    function verifyWatermark(address user, uint64 upload_watermark) public view returns (bool){\n        if(watermark_mapping[user] == upload_watermark) return true;\n        else return false;\n    }\n\n}\n\n\n",
  "sourcePath": "contracts/watermark_generator.sol",
  "type": "contract"
}